:020000040800F2
:10000000600A002001010008190F0008ED0C00082B
:10001000150F0008550100084D1D000800000000E4
:10002000000000000000000000000000C5110008F2
:10003000C909000800000000A10F0008B112000863
:100040001B0100081B0100081B0100081B01000820
:100050001B0100081B010008CB0900081B01000858
:100060001B0100081B0100081B0100081B01000800
:100070001B0100081B0100081B0100081B010008F0
:100080001B0100081B0100081B0100081B010008E0
:100090001B0100081B0100081B0100081B010008D0
:1000A0001B0100081B0100081B0100081B010008C0
:1000B0001D1300081B0100081B0100081B0100089C
:1000C0001B0100081B0100081B0100081B010008A0
:1000D0001B0100081B0100081B0100081B01000890
:1000E0001B0100081B0100081B010008DFF80CD0F1
:1000F00000F018F800480047C1200008600A0020FE
:100100000648804706480047FEE7FEE7FEE7FEE7B1
:10011000FEE7FEE7FEE7FEE7FEE7FEE7BD120008AA
:10012000ED000008064C074D06E0E06840F00103D2
:1001300094E8070098471034AC42F6D3FFF7DAFF93
:1001400094240008B4240008014800887047000087
:10015000BC00002000BFFEE710B50A48007878B167
:1001600008484068401C074948600846406889685C
:10017000884205D9002003490870486000F004F85F
:1001800010BD00001C01002010B50021014801F045
:10019000DBFA10BD0004004010B5044621462220C1
:1001A00000F0E6FB10BD10B504462146382000F0F3
:1001B000DFFB10BD10B504462146392000F0D8FB06
:1001C00010BD10B504462146262000F0D1FB10BD1D
:1001D00010B504462146252000F0CAFB10BD0000E2
:1001E0000448408803490988884201D100207047AB
:1001F0000120FCE7100100200021074A11805180F6
:10020000002006E000220449091D21F81020411CAD
:1002100088B20428F6DB70471001002010B50446B0
:100220002146202000F0A4FB10BD10B50446214655
:10023000402000F09DFB10BD10B501222021024896
:1002400000F033FD10BD0000000C014000200C49FF
:1002500049880B4A128891420AD009494988491CA9
:10026000074A518011464988491E121D32F8110073
:1002700003494988042902D10021014A518070476D
:100280001001002010B504462146372000F070FB15
:1002900010BD08B5022000F0D6FA00F0C2F880B90F
:1002A00000F0C4F868B9042000F0E7F98DF8010007
:1002B000032000F0E2F98DF80000BDF8000000F026
:1002C00033FB08BD10B500F02BF8012220210848AF
:1002D00000F0EBFC142000F0EDFC0022202104488B
:1002E00000F0E3FC322000F0E5FC00F0C1FA10BDA4
:1002F000000C014010B504462146272000F038FBD1
:1003000010BD10B504462146282000F031FB10BD79
:1003100010B504462146732000F02AFB10BD0000F2
:1003200000B585B00121084600F05CFE0121C8033C
:1003300000F066FC0121082000F054FE2020ADF8FA
:10034000100010208DF8130003208DF8120004A96E
:100350002D4800F0C9FB0121092000F043FE0121D6
:10036000092000F03FFE4020ADF8100003208DF87A
:1003700012001C208DF8130004A9234800F0B4FBE0
:100380008020ADF8100003208DF812001C208DF89D
:10039000130004A91C4800F0A7FB0121480500F048
:1003A00001FE1A4800F0B0FC0020ADF804004BF646
:1003B000FF70ADF806000020ADF808004FF4806033
:1003C000ADF80A000001ADF80C0011480090694634
:1003D0000E4800F0B5FC01210C4800F089FC012119
:1003E000082000F0FFFD4FF48070ADF810000320EE
:1003F0008DF8120028208DF8130004A9024800F09F
:1004000073FB05B000BD0000000C0140005400402B
:10041000A086010010B5044621462A2000F0A8FA63
:1004200010BD10B50A2000F028F910BD10B50B2042
:1004300000F023F910BD10B504462146422000F01B
:1004400097FA10BD10B5044621461E2000F090FA20
:1004500010BD10B5044621462F2000F089FA10BDCA
:100460001EB5034641F28830029000200090EAE079
:100470007E48008820F480607C4C208020460088E4
:1004800040F48070208041F28830029000BF7748AD
:100490001430008800F0010020B90298401E02903C
:1004A0000028F4D1029830B97048008840F40070F8
:1004B0006E4C2080C2E003F0FE006C4C10342080B3
:1004C00041F28830029000BF68481430008800F084
:1004D0000200022804D00298401E02900028F3D1A6
:1004E000029830B96148008840F400705F4C208069
:1004F000A4E05E4818300088C0B201905B4810301C
:10050000018041F28830029000BF584814300088C2
:1005100000F00400042804D00298401E0290002835
:10052000F3D1029830B95148008840F400704F4C24
:10053000208083E04D48008840F480704B4C208040
:1005400041F28830029000BF48481430008800F023
:10055000010020B90298401E02900028F4D10298B0
:1005600030B94248008840F40070404C208065E07B
:1005700043F001003D4C1034208041F2883002905D
:1005800000BF3A481430008800F00200022804D06E
:100590000298401E02900028F3D1029830B93348E7
:1005A000008840F40070314C208047E02F480088DC
:1005B00020F480602D4C20802C4818300088C0B278
:1005C00001902046008840F40070208041F288307D
:1005D000029000BF25481430008800F040004028F9
:1005E00004D00298401E02900028F3D1029830B93E
:1005F0001E48008840F400701C4C20801EE01B4800
:1006000010300088107041F28830029000BF174807
:10061000008800F40070B0F5007F04D10298401EFD
:1006200002900028F3D1029830B91048008840F4B5
:1006300000700E4C208001E000201EBD9DF80000DF
:10064000401CC0B200909DF800000A28FFF610AFD1
:100650000648008840F40070044C20802046008842
:1006600040F4806020800120E7E700000054004053
:1006700010B5FD2000F001F810BD38B504466A46FB
:1006800021465020FFF7ECFE9DF8000038BD10B564
:10069000044621464F2000F06BF910BD1CB50346FF
:1006A00041F2883001904E48008820F480604C4C24
:1006B00020802046008840F4807020800BE0019864
:1006C000441E019438B94648008840F40070444CF8
:1006D0002080FF201CBD42481430008800F001003B
:1006E0000028ECD003F0FE003D4C1034208041F295
:1006F000883001900BE00198441E019438B93848C5
:10070000008840F40070364C2080FF20E2E7344837
:100710001430008800F002000228ECD13048183074
:100720000088009008782E4C10342080491C521EFE
:100730001BE041F2883001900BE00198441E0194C7
:1007400038B92748008840F40070254C2080FF20ED
:10075000C0E723481430008800F004000428ECD1DE
:1007600008781F4C10342080491C101EA2F1010291
:10077000DFD141F2883001900BE00198441E0194D2
:1007800038B91748008840F40070154C2080FF20CD
:10079000A0E713481430008800F004000428ECD1CE
:1007A0000F48008840F400700D4C208041F28830E2
:1007B00001900BE00198441E019438B90848008864
:1007C00040F40070064C2080FF2083E70448008836
:1007D00000F40070B0F5007FECD000207AE7000054
:1007E0000054004010B504462146302000F0C0F807
:1007F00010BD10B504462146312000F0B9F810BDF7
:1008000010B504462146322000F0B2F810BD10B5F4
:1008100004462146332000F0ABF810BD10B5044665
:100820002146342000F0A4F810BD10B5044621463E
:10083000352000F09DF810BD10B504462146362045
:1008400000F096F810BD10B504462146002000F0D7
:100850008FF810BD10B5044621461F2000F088F81F
:1008600010BD10B504462146212000F081F810BDCE
:1008700010B54220FFF7E7FF0020FFF749FDFE20FB
:10088000FFF7EFFF0920FFF7D6FD8C20FFF7C2FD31
:100890003820FFF7DFFF2B20FFF7C0FC00212320CB
:1008A00000F066F8A121242000F062F80220FFF792
:1008B000BCFC7420FFF770FC1320FFF7CAFDFF207B
:1008C000FFF786FC0420FFF77CFC0020FFF7DFFE2B
:1008D0000320FFF7B7FD4020FFF784FF4020FFF71C
:1008E00088FF4020FFF78CFF4020FFF790FF40205B
:1008F000FFF794FF4020FFF798FF4020FFF79CFF91
:100900004020FFF7BFFCFC20FFF74DFCFF20FFF766
:1009100051FCFF20FFF7EEFC0020FFF7F2FC032064
:10092000FFF791FF10BD000010490988491C0F4ACC
:100930005288914207D00D490988491C042903D1E6
:100940000A49498801B9704708490A88091D21F8F0
:100950001200091F0988491C044A118011460988A0
:10096000042901D10021118000BFECE71001002013
:1009700038B504460D468DF800408DF8015002222E
:1009800069465020FFF78AFE08B1002038BD0120DB
:10099000FCE7000010B5002410E00A480068016B75
:1009A0002046884707480068816B204688470548ED
:1009B0000068416B20468847601CC4B2072CECDB02
:1009C00010BD0000D4000020704710B5012000F0D9
:1009D0000DF820B1012000F003F801F001FA10BD7C
:1009E00001490860704700001404014001460020DE
:1009F0000022074B1B6803EA0102054B14331B68F6
:100A00000B4013B10AB1012000E000207047000044
:100A100000040140002123498279002A3AD00A4685
:100A2000126803689A430B461A600A1D126803682D
:100A30009A430B1D1A60027911440A6803681A432D
:100A40000A60184A0832126803689A43154B083343
:100A50001A601A1D126803689A43124B0C331A600D
:100A60004279102A0ED11A1F126803681A430D4BDF
:100A700008331A601A1D126803681A43094B0C33B5
:100A80001A600DE00749427911440A6803681A4365
:100A90000A6005E0027911440A6803689A430A6013
:100AA000704700000004014030B500228B071C0F86
:100AB0000F2303FA04F20B4B8C1053F824309343AA
:100AC000084C8D1044F8253023468C1053F8243000
:100AD0008C07240F00FA04F42343024C8D1044F8D1
:100AE000253030BD080001402DE9F04102460025C7
:100AF0000026002000230024002791F803C00CF0FA
:100B00000F0591F803C00CF0100CBCF1000F03D0DE
:100B100091F802C04CEA050591F800C0BCF1000F45
:100B200031D0146800202BE04FF0010C0CFA00F3D8
:100B3000B1F800C00CEA03069E4220D183004FF0BA
:100B40000F0C0CFA03F7BC4305FA03FC4CEA04044F
:100B500091F803C0BCF1280F06D14FF0010C0CFA3C
:100B600000FCC2F814C00AE091F803C0BCF1480FC1
:100B700005D14FF0010C0CFA00FCC2F810C0401C6B
:100B80000828D1D31460B1F800C0BCF1FF0F34DDE8
:100B9000546800202EE000F1080C4FF0010808FA1C
:100BA0000CF3B1F800C00CEA03069E4221D1830089
:100BB0004FF00F0C0CFA03F7BC4305FA03FC4CEAA8
:100BC000040491F803C0BCF1280F05D100F1080C12
:100BD00008FA0CF8C2F8148091F803C0BCF1480F71
:100BE00007D100F1080C4FF0010808FA0CF8C2F820
:100BF0001080401C0828CED35460BDE8F08100006E
:100C0000F0B50A46002300240021002500F000462C
:100C1000B6F1004F02D11D4EF16901E01B4E716823
:100C2000C0F3034583B200F44016B6F5401F08D167
:100C300021F07061154E766826F07066134F7E6065
:100C400012E000F48016B6F5801F06D1032606FADE
:100C500005F4A14341F0706106E0460D360103FA48
:100C600006F6B14341F0706122B1460D360103FA38
:100C700006F6314300F00046B6F1004F02D1034EB4
:100C8000F16101E0014E7160F0BD00000000014023
:100C90000246002093680B400BB1012000E00020C9
:100CA000704741617047016170470AB1016100E01E
:100CB0004161704701B5002100F00AF8014600BF0C
:100CC00000F006F8401A009A9042F9D308BD0000DF
:100CD00001480068704700000400002002480068D6
:100CE000401C0149086070470400002000BFFEE777
:100CF00021B1028842F00102028004E002884FF62E
:100D0000FE731A400280704710B504460B488442B7
:100D100009D10121480500F055F900214FF40010D8
:100D200000F050F908E00121880500F04BF900219E
:100D30004FF4800000F046F910BD00000054004060
:100D40002DE9F04385B004460D460026B146042740
:100D5000DFF8CC80A6884FF6C0700640684600F0E9
:100D600051F9DDF808802F48B8FBF0F01FFA80F940
:100D700046EA0906A68020884FF6FE7108402080CA
:100D800000262949286888420CD828684000B8FB0A
:100D9000F0F087B2042F00DA04273E4309F1010086
:100DA000208427E0E8884BF6FF71884206D1286846
:100DB00000EB4000B8FBF0F087B209E0286800EBD8
:100DC000C00101EB0010B8FBF0F087B247F4804798
:100DD000C7F30B0008B947F0010747F4004006438A
:100DE0004FF4967009FB00F04FF47A7190FBF1F02C
:100DF000401C2084A683208840F0010020802688A3
:100E00004FF6F5300640A8886989084306432680D6
:100E1000A88929890843208105B0BDE8F083000036
:100E200000127A0040420F00A086010010B5012197
:100E3000084600F0D7F801210148FFF7E1FE10BD98
:100E40000002300038B500241BE00F4951F824009F
:100E5000012100F0C7F80D4830F81400ADF800008B
:100E600003208DF8020010208DF80300084951F886
:100E700024006946FFF738FEE0B200F00BF8601C72
:100E800084B2032CE1DB38BD682400085C24000830
:100E9000A800002038B504460C4830F81400ADF81E
:100EA000000001208DF8020010208DF80300084991
:100EB00051F824006946FFF717FE044A32F814106F
:100EC000034A52F82400FFF7EEFE38BD5C24000808
:100ED000A800002038B504460C4830F81400ADF8DE
:100EE000000003208DF8020010208DF8030008494F
:100EF00051F824006946FFF7F7FD044A32F8141050
:100F0000034A52F82400FFF7CCFE38BD5C240008E9
:100F1000A800002000BFFEE77047000070B5002168
:100F200000230F22C47804B3154C246804F4E06451
:100F3000C4F5E064210AC1F10403CA40447804FA0C
:100F400003F184781440214309010E4C0678A15521
:100F5000047804F01F050124AC4005786D11AD0044
:100F600005F1E025C5F8004109E0047804F01F050B
:100F70000124AC40044D0678761145F8264070BD3A
:100F80000CED00E000E400E080E100E002490143F4
:100F9000024A1160704700000000FA050CED00E005
:100FA0007047000029B1064AD2690243044BDA6156
:100FB00004E0034AD2698243014BDA6170470000C2
:100FC0000010024029B1064A12690243044B1A611B
:100FD00004E0034A12698243014B1A617047000022
:100FE0000010024029B1064A92690243044B9A61FB
:100FF00004E0034A92698243014B9A617047000002
:101000000010024030B500210022002400232D4DA5
:101010006D6805F00C0121B1042905D0082923D100
:1010200005E0294D056022E0274D05601FE0254DB4
:101030006D6805F47012234D6D6805F48034022547
:1010400005EB92421CB9214D554305600BE01D4D47
:101050006D6805F400351DB11C4D5543056002E077
:10106000194D5543056002E0174D056000BF00BFF4
:10107000144D6D6805F0F0010909154D6B5C0568AC
:10108000DD4045600F4D6D6805F4E061090A104DC3
:101090006B5C4568DD4085600A4D6D6805F4605104
:1010A000C90A0B4D6B5C4568DD40C560054D6D6838
:1010B00005F44041890B074D6B5CC568B5FBF3F542
:1010C000056130BD0010024000127A0000093D00A9
:1010D000380000204800002001460148405C70476D
:1010E000D000002038B500241EE01B4951F8240030
:1010F0000121FFF777FF194830F81400ADF8000020
:1011000003208DF8020010208DF80300144951F8D7
:1011100024006946FFF7E8FCE0B200F025F8002063
:1011200010490855601C84B2032CDEDB0A49C868EC
:101130000121FFF757FF0948C088ADF800000320E0
:101140008DF8020028208DF803000549C86869461B
:10115000FFF7CAFC38BD0000842400087C24000886
:10116000C0000020D000002010B50446054A32F827
:101170001410054A52F82400FFF793FD002003499C
:10118000085510BD7C240008C0000020D0000020BD
:1011900010B50446054A32F81410054A52F82400E6
:1011A000FFF781FD01200349085510BD7C2400088C
:1011B000C0000020D0000020014A115470470000F8
:1011C000D0000020704710B500F002F810BD0000FC
:1011D0000CB50020019000903348006840F4803046
:1011E0003149086000BF3048006800F400300090CA
:1011F0000198401C0190009818B90198B0F5A06FB3
:10120000F1D12948006800F4003010B101200090AD
:1012100001E0002000900098012843D12348006895
:1012200040F01000214908600846006820F00300E3
:1012300008600846006840F0020008601A484068EC
:10124000194948600846406848600846406840F4CC
:10125000806048600846406820F47C10486008467A
:10126000406840F4E81048600846006840F080702C
:10127000086000BF0C48006800F000700028F9D03A
:101280000948406820F00300074948600846406864
:1012900040F00200486000BF0348406800F00C00C6
:1012A0000828F9D10CBD00000010024000200240C7
:1012B00010B500F0A9FAFFF711FD10BD10B51348E5
:1012C000006840F001001149086008464068104974
:1012D00008400E494860084600680E4908400B491E
:1012E00008600846006820F48020086008464068CE
:1012F00020F4FE0048604FF41F008860FFF763FF92
:101300004FF000600449086010BD0000001002406A
:101310000000FFF8FFFFF6FE08ED00E010B5022127
:10132000480700F095F8A0B10221480700F074F8D2
:101330004FF0804000F07FF8304908800846008870
:101340002F4A1288104481B24FF0804000F0F8F923
:1013500053E00421080700F07BF8B0B1042108072E
:1013600000F05AF8FEF7F8FE4FF0804000F066F803
:101370002249088008460088224A1288104481B217
:101380004FF0804000F0DEF937E00821C80600F099
:101390005FF8A0B10821C80600F03EF84FF0804089
:1013A00000F04FF81549088008460088164A128850
:1013B000104481B24FF0804000F0C6F91DE01021CA
:1013C000880600F029F84FF480711048FFF760FCA0
:1013D00018B10F490968486C80474FF0804000F011
:1013E00033F806490880084600880A4A12881044E3
:1013F00081B24FF0804000F0A9F910BD1800002024
:10140000080000200A0000200C000020000C014011
:10141000D40000200E000020CA430282704721B190
:10142000028842F00102028004E002884FF6FE7357
:101430001A40028070470146888E70470146088F27
:1014400070470146888F70470146B1F840007047E9
:1014500030B50246002000230024158A05EA010366
:10146000958905EA010413B10CB1012000E00020C8
:1014700030BD1AB183890B43838102E083898B439A
:101480008381704770B5002400220023058C4FF63D
:10149000FE7635400584028C8388048B4FF68F7569
:1014A0002C40B51E2C400D882C43751E2A400D89FA
:1014B0002A434D882A43144DA8420BD0134DA8420D
:1014C00008D0134DA84205D0124DA84202D0124DAB
:1014D000A84213D14FF6F7752A404D892A434FF69B
:1014E000FB752A408D882A434FF6FF652B404FF647
:1014F000FF552B408D892B43CD892B43838004835B
:10150000CD888586028470BD002C014000340140E6
:101510000040014000440140004801400A460021CB
:10152000018B4FF6F7731940114301837047000098
:1015300070B5002400220023058C4FF6EF7635406D
:101540000584028C8388048B48F6FF752C404FF687
:10155000FF452C400D884FF6FF7606EA05252C4303
:101560004FF6DF752A400D8906EA05152A434D8896
:1015700006EA05152A43154DA84202D0144DA8428B
:101580001DD14FF67F752A404D894FF6FF7606EA4A
:1015900005152A434FF6BF752A408D8806EA0515C2
:1015A0002A434FF6FF352B404FF2FF752B408D89B4
:1015B00006EA85052B43CD8906EA85052B43838002
:1015C0000483CD880587028470BD0000002C014093
:1015D000003401400A460021018B4FF2FF7319408D
:1015E0004FF6FF7303EA022319430183704700009B
:1015F00070B5002400220023058C4FF6FF663540AD
:101600000584028C8388848B4FF68F752C404FF6AF
:10161000FC752C400D882C434FF6FF552A400D8950
:101620004FF6FF7606EA05252A434D8806EA05258A
:101630002A43154DA84202D0144DA8421DD14FF2A5
:10164000FF752A404D894FF6FF7606EA05252A43A5
:101650004FF6FF352A408D8806EA05252A434EF6C7
:10166000FF752B404DF6FF752B408D8906EA051559
:101670002B43CD8906EA05152B4383808483CD88CF
:101680008587028470BD0000002C014000340140B9
:101690000A460021818B4FF6F7731940114381836D
:1016A0007047000070B5002200230024058C4EF620
:1016B000FF7635400584038C8488828B48F6FF755D
:1016C0002A404FF6FF452A400D884FF6FF7606EA7E
:1016D00005252A434DF6FF752B400D8906EA053591
:1016E0002B434D8806EA05352B430B4DA84202D00B
:1016F0000A4DA84208D14BF6FF752C408D894FF654
:10170000FF7606EA85152C4384808283CD88A0F875
:101710004050038470BD0000002C014000340140A3
:101720000A460021818B4FF2FF7319404FF6FF7379
:1017300003EA02231943818370470185828270473F
:10174000818670470187704781877047A0F84010F5
:1017500070470000002202881D4B98420ED01D4B9E
:1017600098420BD0B0F1804F08D01B4B984205D067
:101770001A4B984202D01A4B984204D14FF68F73FD
:101780001A404B881A43174B984207D0164B984281
:1017900004D04FF6FF431A40CB881A4302808B884F
:1017A00083850B8803850A4B98420BD0094B9842DE
:1017B00008D00E4B984205D00D4B984202D00D4BED
:1017C000984201D10B7A038601238382704700007F
:1017D000002C01400034014000040040000800409B
:1017E000000C004000100040001400400040014088
:1017F000004401400048014000B50246002010703E
:10180000104600F029F800BD02480068401C01495C
:1018100008607047000000200146087870470121E9
:1018200001707047012242700A4A1268826041606A
:10183000084A1268C26082680A4402618268C2F182
:10184000FF328A4202D90022827001E001228270B6
:10185000704700000000002000214170416081605D
:101860007047000010B504466078A8B10B480068C6
:10187000A060A07850B9A068216988420CD92046A0
:10188000FFF7EAFF2046FFF7CAFF05E0A068E1681E
:10189000884201D20020A07010BD0000000000208E
:1018A00010B588B0002401210846FFF77BFB4148B2
:1018B00000684149B0FBF1F0401E84B24FF6FF7062
:1018C000ADF818000020ADF81400ADF81A00ADF81E
:1018D000160005A94FF08040FFF73CFF012221468A
:1018E0009007FFF72AFF0020ADF804000120ADF8B3
:1018F000060032480088ADF80A000020ADF80C0060
:1019000001A94FF08040FFF7BDFD00214FF080405E
:10191000FFF704FE0120ADF8060029480088ADF865
:101920000A0001A94FF08040FFF702FE00214FF0AE
:101930008040FFF74FFE0120ADF8060021480088E7
:10194000ADF80A0001A94FF08040FFF751FE0021D9
:101950004FF08040FFF79CFE0120ADF806001A48CA
:101960000088ADF80A0001A94FF08040FFF79AFE09
:1019700000214FF08040FFF7D3FE01221E21900787
:10198000FFF777FD01218807FFF749FD4FF4E0607D
:10199000FFF7FCFA1C208DF8000000208DF80100F4
:1019A00001208DF802008DF803006846FFF7B6FAB3
:1019B00008B010BD24000020400D030008000020E6
:1019C0000A0000200C0000200E00002010B50D4978
:1019D0000968C8698047002411E0002004EB440135
:1019E000094A02EB4101887004EB440102F811003E
:1019F00004EB440102EB41014870601CC4B2072CA7
:101A0000EBDB10BDD40000203C010020002100EBE6
:101A10004002024B03EB4202D17070473C010020B0
:101A2000002100EB4002024B03EB42029170704731
:101A30003C010020002100EB4002024B03F8121091
:101A4000704700003C010020002100EB4002024BE7
:101A500003EB4202517070473C010020014601EB4C
:101A60004100024A02EB4000C07870473C01002070
:101A7000014601EB4100024A02EB400080787047CA
:101A80003C010020014601EB4100024A12F810001F
:101A9000704700003C010020014601EB4100024A72
:101AA00002EB4000407870473C01002010B525480B
:101AB0002549086009680868804724482249096860
:101AC0000861234820490968C86022481E490968FE
:101AD000086221481C490968486220481A49096877
:101AE00088621F4818490968C8621E481649096873
:101AF00008631D481449096848631C48124909686D
:101B000088631B4810490968C8631A480E49096868
:101B1000086419480C490968886418480A49096822
:101B2000486517480849096808651448064909685E
:101B30004865144804490968886503490968886C40
:101B4000804710BD4C000020D4000020891B0008F5
:101B5000F91C0008851A0008991A0008711A000873
:101B60005D1A0008351A0008491A0008211A0008F1
:101B70000D1A0008CD190008D51C0008411D0008E9
:101B8000251D0008191D000870B54D4909684869F0
:101B90008047002854D04A490968886980474949E4
:101BA0000880002446E047480188474830F8140080
:101BB000014046480088444A32F8142010408142CF
:101BC00036D040480088404931F814100840A8B188
:101BD000012004EB44013E4A02EB4101487104EB51
:101BE000440102F81100E03232F8141004EB8403CF
:101BF0008C3A02EB8300FFF715FE19E0002004EB9E
:101C00004401334A02EB4101487104EB440102EB09
:101C100041018870012004EB440102EB410148704E
:101C200004EB84022A49543101EB8200FFF714FED1
:101C3000601C84B2072CB6DB244822490968016085
:101C400020480088A0B9002510E005EB8502204956
:101C5000543101EB8200FFF7FFFD002005EB450149
:101C60001B4A02EB41018870681C85B2072DECDB32
:101C7000002421E004EB84021549543101EB820079
:101C8000FFF7CAFD70B104EB84021149543101EB36
:101C90008200FFF7B1FD012004EB44010C4A02EB86
:101CA0004101887004EB84020949543101EB820040
:101CB000FFF7D8FD601C84B2072CDBDB70BD000091
:101CC000D4000020FC000020D800002000010020EB
:101CD0003C01002000200AE04FF47A72054921F807
:101CE0001020AA220E3121F81020411C88B20728AA
:101CF000F2DB70471C02002010B5064909684868ED
:101D00008047044909680868804702490968886C67
:101D1000804710BDD4000020014A22F810107047FF
:101D20002A0200200146002004E0044A22F8101094
:101D3000421C90B20728F8DB704700002A020020FE
:101D4000014A22F8101070471C02002000BFFEE775
:101D500010B500F05DF94BF284200349C86041F6EC
:101D60006410086110BD00004C02002008B500217D
:101D7000009102E00099491C009100998142F9D339
:101D800008BD000000B502490869FFF7EFFF00BD7C
:101D90004C02002000B50249C868FFF7E7FF00BD0C
:101DA0004C02002000B50D49C9680C4A12699142E5
:101DB00002D90A49C96801E008490969074AD26895
:101DC000064B1B699A4202D2044AD26801E0034AD8
:101DD0001269881AFFF7CAFF00BD00004C020020FC
:101DE00010B501210348FEF753FF044600F04EF9F9
:101DF00010BD000000080140012207490A54491E95
:101E0000097821F00101491C034A521E1170002279
:101E10000149091D0A5470474D020020012207495B
:101E20000A54491E097821F00101491C034A521E37
:101E3000117001220149091D0A5470474D0200200A
:101E40002DE9F04100256F48007800F001000028DE
:101E50007DD0FEF779F9804603E0FEF775F98046FC
:101E60006D1C40F6E440804502DA67488542F4D3B1
:101E7000654885420ED365484068401C6349486008
:101E80000846406802280AD903204860012088706B
:101E9000C87004E000205D4948608870C870002563
:101EA00003E0FEF751F980466D1CB8F52F7F02DD87
:101EB00055488542F5D3002500270026002413E06D
:101EC0005048401C005D20B14E48401D005D00B1EF
:101ED00001264C48401C005D20B14A48401D005D71
:101EE00000B90127601CC4B2042CE9DB002E56D0D7
:101EF000002F54D0434800694249C968884227D21C
:101F0000FFF740FF00240CE03E48401D005D30B963
:101F10002046FFF729F900213A48401C0155601C72
:101F2000C4B2042CF0DBFFF73DFF00240CE0354881
:101F3000401D005D30B12046FFF72AF900213148ED
:101F4000401C0155601CC4B2042CF0DB52E057E089
:101F5000FFF720FF00240CE02A48401D005D30B14F
:101F60002046FFF715F900212648401C0155601C4A
:101F7000C4B2042CF0DBFFF715FF00240CE021486D
:101F8000401D005D30B92046FFF7EEF800211D48E6
:101F9000401C0155601CC4B2042CF0DB2AE0A6B141
:101FA0009FB9FFF7F7FE00240CE01648401D005DC6
:101FB00030B12046FFF7ECF800211248401C0155D3
:101FC000601CC4B2042CF0DB14E09EB997B1FFF79B
:101FD000D9FE00240CE00B48401D005D30B92046BE
:101FE000FFF7C2F800210748401C0155601CC4B22D
:101FF000042CF0DB0348007820F001000149087050
:10200000BDE8F0814C020020400D030008010020D3
:102010001FB501210846FEF7E5FF01210420FEF768
:10202000E1FF0120ADF80C0048208DF80F000320DF
:102030008DF80E0003A91448FEF756FD012100207B
:10204000FEF732FD0120019000208DF808001020DD
:102050008DF8090001208DF80A0001A8FEF7DAFCCE
:102060004FF44070FEF792FF06208DF800000E201E
:102070008DF8010000208DF8020001208DF803008A
:102080006846FEF74BFF1FBD0008014010B504462F
:102090001CB10320FEF71EFF02E00320FEF7FAFE4C
:1020A00010BD02E008C8121F08C1002AFAD170470B
:1020B0007047002001E001C1121F002AFBD17047C8
:1020C000234800684FF47A72B0FBF2F1B1F1807FDF
:1020D00001D301201DE021F07F40401E4FF0E0229F
:1020E000506150170F22002807DA13071D0E194BF5
:1020F00000F00F04241F1D5503E013071C0E164BA0
:102100001C5400BF00204FF0E022906107201061B6
:10211000002008B100BFFEE7FEF788FEFEF7E2FFF1
:10212000FFF716FEFEF78EFEFFF7C0FCFFF7B8FBC9
:102130000A480B4908600AE00A49096808698047AB
:10214000074800688047FFF77BFEFEF723FCF3E7B4
:102150002400002018ED00E000E400E06921000800
:1021600014000020D400002008B5B248007840BB1D
:102170000120B04908700020AF490870AF490870CD
:10218000009017E0BDF80010C8B2FEF7A5FF30B10F
:10219000AB49BDF80020885CFEF79CFE05E0A8492D
:1021A000BDF80020885CFEF775FEBDF80000401CFD
:1021B00080B20090BDF800000228E3DB0420FEF7A7
:1021C00089FE0020009001E19E4ABDF80030D05CFD
:1021D0009D4A1268116A884700287DD0994ABDF847
:1021E0000030D05C984A1268116B8847BDF8000037
:1021F000002850D1BDF80010C8B2FEF76DFF28BB13
:102200008F49BDF80020885CFEF764FE8C4ABDF85B
:102210000010491C505CFEF73DFEBDF80010C8B22E
:102220000121FEF7C9FFBDF80010C8B2FFF7F6FDA7
:10223000BDF80010491CC8B20021FEF7BDFFBDF873
:102240000010491CC8B2FFF7D7FD24E07C49BDF857
:102250000020885CFEF71EFE794ABDF80010491C7C
:10226000505CFEF717FEBDF80010C8B20021FEF763
:10227000A3FFBDF80010C8B2FFF7BEFDBDF8001007
:10228000491CC8B20021FEF797FFBDF80010491C99
:10229000C8B2FFF7B1FDBDF80000012852D1BDF86A
:1022A0000010C8B2FEF718FF38BB6549BDF8002022
:1022B000885CFEF70FFEBDF80010491E604A505CB6
:1022C000FEF7E8FDBDF80010C8B20121FEF774FF6B
:1022D000BDF80010C8B200E04FE0FFF79FFDBDF869
:1022E0000010491EC8B20021FEF766FFBDF80010BD
:1022F000491EC8B2FFF780FD24E05149BDF8002017
:10230000885CFEF7C7FDBDF80010491E4C4A505CC2
:10231000FEF7C0FDBDF80010C8B20021FEF74CFF6B
:10232000BDF80010C8B2FFF767FDBDF80010491EE8
:10233000C8B20021FEF740FFBDF80010491EC8B228
:10234000FFF75AFDBDF80000022828D1BDF80010A3
:10235000C8B2FEF7C1FE88B93949BDF80020885CD3
:10236000FEF7B8FDBDF80010C8B20121FEF724FF4A
:10237000BDF80010C8B2FFF751FD10E03049BDF8BC
:102380000020885CFEF786FDBDF80010C8B2002171
:10239000FEF712FFBDF80010C8B2FFF72DFD294A65
:1023A000BDF80030D05C284A1268516A884740B1B5
:1023B000244ABDF80030D05C234A1268516B88472C
:1023C00009E0BDF80000401C80B20090BDF800009C
:1023D0000328FFF6F9AE00BF4FF480611B48FEF7FB
:1023E00057FC012802D00020194908704FF4806181
:1023F0001648FEF74DFC01281BD115480078C0B9DE
:102400000F490878FEF746FD0D494878FEF742FD72
:1024100000210846FEF7D0FE0020FFF7EDFC00216A
:102420000120FEF7C9FE0120FFF7E6FC0120084964
:10243000087008BD1A0000201B0000201C000020AE
:102440005724000854240008D4000020000C014048
:102450001D0000200405030001020000000200042A
:1024600000400080000200000400000004000000A2
:102470000800000008000000080000000020001014
:102480000008000408000000080000000800000028
:1024900008000000B4240008000000201001000023
:1024A000A2200008C42500081001002050090000E7
:1024B000B22000080000000000000000A861102702
:1024C000E803F4010000000000000000000000002C
:1024D000000000000000000000A24A04000000000C
:1024E00000000000010203040607080900000000C4
:1024F0000102030401020304060708090204060896
:10250000C50200083902000871060008000000003A
:1025100000000000E10100084D020008F901000878
:1025200000000000000000000000000000000000AB
:10253000000000000000000000000000000000009B
:1025400000000000930200080000000000000000EE
:102550000000000000000000000000000008014032
:1025600000080140000C0140000C0140000C01403B
:1025700000000000000C0140000C0140000C014074
:10258000000C0140000000000000000001000200FB
:1025900004000800100020000001000000000000FE
:1025A000000000000000000000000000000000002B
:1025B000000000000000000000000000000000001B
:0425C0000000000017
:04000005080000ED02
:00000001FF
